:100000000C9434000C9446000C9446000C9446006A
:100010000C9446000C9446000C9446000C94460048
:100020000C9446000C9446000C9446000C94460038
:100030000C9446000C9446000C9446000C94460028
:100040000C94A6000C9446000C9446000C944600B8
:100050000C9446000C9446000C9446000C94460008
:100060000C94F0000C94460011241FBECFEFD8E092
:10007000DEBFCDBF21E0A0E0B1E001C01D92A437FA
:10008000B207E1F70E940B020C9456020C94000098
:1000900085ED8093BC008091BC0084FDFCCF109264
:1000A0004501089520912101260F3327331F213266
:1000B0003105ECF420914501FC0190E080E0243012
:1000C00069F082E00895A09121012191AC014F5F78
:1000D0005E4FA40FB52FB11D2C930196861798F390
:1000E00080912101680F6093210180E0089581E0F3
:1000F000089508958FEF9FEF08958FEF9FEF089574
:100100008091000190E09195819591090895CF9398
:10011000DF93CB01EA01642F0E945200CE01DF91F0
:10012000CF910895CF93DF931F92CDB7DEB7698348
:1001300061E0CE0101960E94520081E090E00F90B4
:10014000DF91CF91089590E080E008951F920F9283
:100150000FB60F9211242F933F938F939F93AF93DA
:10016000BF938091700190917101A0917201B09143
:10017000730130916F0123E0230F2D3758F501965D
:10018000A11DB11D20936F018093700190937101A7
:10019000A0937201B093730180916B0190916C01F7
:1001A000A0916D01B0916E010196A11DB11D8093CA
:1001B0006B0190936C01A0936D01B0936E01BF91A0
:1001C000AF919F918F913F912F910F900FBE0F9004
:1001D0001F90189526E8230F0296A11DB11DD2CFBE
:1001E0001F920F920FB60F9211242F933F934F93AC
:1001F0005F936F937F938F939F93AF93BF93EF938F
:10020000FF938091B900887F803609F44AC0F0F5E9
:10021000883209F4A5C018F5803109F499C0B8F402
:10022000882309F4F5C0883009F492C0FF91EF915A
:10023000BF91AF919F918F917F916F915F914F91FE
:100240003F912F910F900FBE0F901F9018958831FE
:1002500009F486C0803251F78093440114C0803481
:1002600009F49BC040F48033B9F38833F9F68093E6
:10027000440185ECAEC0803509F483C0883509F4AB
:1002800094C0883499F60E944800D0CF883909F488
:100290008AC038F5883729F050F4883611F0803755
:1002A00029F683E0809345011092430155C08838B8
:1002B00009F479C0803919F0803809F0B7CF8091FE
:1002C0004301803208F06FC0E091430181E08E0F5E
:1002D000809343018091BB00F0E0ED5DFE4F808391
:1002E0003BC0803B39F0D0F4803A09F477C0883ABB
:1002F00009F09CCF84E08093450110922201109276
:100300002101F0E0E0E009958091210181110FC009
:1003100081E0809321011092010109C0803C09F421
:10032000A8CF883C09F4A5CF883B09F07FCFE091A6
:10033000220181E08E0F80932201F0E0EF5FFE4FFB
:1003400080818093BB00909122018091210129C07E
:1003500080916A018093BB0085EC8093BC0066CFDE
:100360009091690180916801981758F5E0916901B1
:1003700081E08E0F80936901F0E0E85BFE4F8081A1
:10038000E9CFE091690181E08E0F8093690180914E
:10039000BB00F0E0E85BFE4F8083909169018091A3
:1003A00068019817C8F285E8D8CFE091690181E02B
:1003B0008E0F809369018091BB00F0E0E85BFE4FF7
:1003C00080838091470181115ECF81E08093460157
:1003D00084EA8093BC001092450128CF85EC80937D
:1003E000BC001092450180914301803230F4E091CD
:1003F0004301F0E0ED5DFE4F10826091430170E03B
:1004000083E291E0F0E0E0E00995109243010ECF25
:100410001092440138CF789484B5826084BD84B54D
:10042000816084BD85B5826085BD85B5816085BDEF
:1004300080916E00816080936E00109281008091A7
:10044000810082608093810080918100816080932F
:100450008100809180008160809380008091B10054
:1004600084608093B1008091B00081608093B0007F
:1004700080917A00846080937A0080917A00826013
:1004800080937A0080917A00816080937A008091D5
:100490007A00806880937A001092C100C0E0D0E0BA
:1004A0002097F1F30E940000FBCF0895F894FFCF4E
:00000001FF
